:0400000080312D28F6
:100008007E1480318B1E09280A28142872140B1DAF
:100018000E280F281428F11786311D2680312A282A
:1000280071170B1F182819282A282100911C1D2830
:100038001E282928F1162000911C23282428292865
:10004800711686312F2680312A28F11571157E10F8
:10005800090080312F28F001F101F201F901FA01BC
:10006800FB01FC01FD0120308400003085001430C4
:1000780086319426803134308400003085001F306A
:100088008631942680317E1020008431142C013072
:10009800F40074082000D207FB19532854285F285D
:1000A80050080319582859285D2827170130D0020D
:1000B8005F28A716FB157B1E6228632876287A1A04
:1000C80066286728722827160130B40700300318FD
:1000D8000130B507003003180130B607A715813184
:1000E8002F218031791C79287A289D281E302000FC
:1000F8005206031980288128882827153C30520683
:10010800031D872888288C28A71486313F2680312C
:100118002000271403107B1F03140030093DF4004E
:10012800F40EF40DF40D7B087406BF397406FB0059
:10013800BE282000A617F91CA228A328BE28013033
:10014800F4007408CC07261703304C02031CAD28B2
:10015800AE28BE2803107B1F03140030093DF400AD
:10016800F40EF40DF40D7B087406BF397406FB0019
:10017800A616CC013C305206031DC328C428CA2841
:1001880085314925803120002616D201A6150800A0
:10019800791ECF28D0282C2922008E1423008E15F2
:1001A8000630F7003030890BD728F70BD7280032F4
:1001B8000730853117258031F700F80177082000CE
:1001C800D8007808D90023008E1122008E10003044
:1001D800200059028030031958020318F428F52822
:1001E800FB2823150130F7007708CB070A29A31449
:1001F800003059028F3003195802031C04290529BD
:100208000A292314FF30F7007708CB074B08803AF8
:100218007B3E031C102911291A2986317E2680313C
:100228002000A2170430F7007708CB004B08803A6B
:10023800843E0318202921292A298631AB268031BA
:1002480020002217FC30F7007708CB00A21679129D
:10025800200022160800FA1C322933293A292000E6
:100268002E15FA1D382939293A298D29FA1C3D29D4
:100278003E2956292000AE1445084604031945298D
:10028800462956290130C5020030C63B2E144508C0
:100298004604031D502951295629AD17FA127A151B
:1002A800FA107C1020002D17FA1D5B295C298D2976
:1002B80041084204031D6129622972294508460440
:1002C8000319672968296F29FA16AD160130C50286
:1002D8000030C63B77292D16FA127729AD15013063
:1002E800C1020030C23B2D154308440403197D297F
:1002F8007E298D290130C3020030C43BAD14430868
:100308004404031D882989298D292D147A137A1606
:10031800FA11AC170800003020003602031D9A2994
:1003280075303502031D9A291C303402031C9D299F
:100338009E29BF292A147A19A229A329BF29A917F6
:10034800FA18A729A829BF292917F91CAC29AD290A
:10035800BF29A9167B1EB129B229BF298431A72438
:100368008131FD01FD0A200029160030B40000305B
:10037800B5000030B60000303602031DC9297530BB
:100388003502031DC92901303402031CCC29CD29AB
:10039800E729A9157A1AD129D229E7292915FA199D
:1003A800D629D729E729A914F91CDB29DC29E7294B
:1003B80029147B1EE029E129E7298431622481314F
:1003C8002000A8177C1428170800F91DEC29ED292E
:1003D800122A20002C167919F229F329122AAC15B1
:1003E800F91CF729F829122A2C15FB1DFC29FD29CF
:1003F800122AAC147A19012A022A122A2C14FA1881
:10040800062A072A122AAB177C180B2A0C2A122A4A
:10041800FD01FD0A2B178431A7248131791D152A86
:10042800162A382A2000AB16FB1D1B2A1C2A382A3C
:100438002B16F919202A212A382AAB157A1A252AC7
:10044800262A382A2B15FA192A2A2B2A382AAB14D5
:100458007C182F2A302A382A0230F5007508FD004A
:100468002B148431862481312000AA170800F91E34
:100478003E2A3F2A802A22008E140630F5003030AA
:10048800890B442AF50B442A003223000E1121005F
:100498000E1520000E1D512A522A582AA215FF3087
:1004A800F5007508CA075D2A22150130F5007508A0
:1004B800CA0722008E1020004A08803A753E031CA5
:1004C800662A672A6F2A0A30F5007508CA00F911EA
:1004D800A21479157E2A22144A08803A8A3E031803
:1004E800762A772A7E2AF630F5007508CA00F915AB
:1004F800A11779112117F9122000A1160800791CFB
:10050800862A872A9D2A20002615FB1C8C2A8D2ADC
:10051800922AA61486310B268231C32A26147D0816
:100528000319972A982AC32AA5178431E42482310B
:10053800C32A20002517F91CA22AA32AC32A7D084A
:100548000319A72AA82AAF2AA5164E080319AD2A07
:10055800AE2AAF2A8D2A7D080319B32AB42AB82AED
:1005680025168431E42482312000A5154E0803198C
:10057800BE2ABF2AC32A251585313025823120009D
:10058800A514080001302000B9070030BA3D3F0823
:1005980040040319D02AD12AE02A0130BF020030D2
:1005A800C03BA4163F084004031DDB2ADC2AE02ACE
:1005B800241686319A268231F9167917643020007C
:1005C80039063A04031DE92AEA2AF82A86314F2611
:1005D800823182318322823101302000B707003016
:1005E800B83DA415B901BA010A3037063804031D0D
:1005F800FE2AFF2A062B80314B2082312000241549
:10060800B701B801A41408008531D22583318B17AE
:100618000B178531612583315E30F5000630F60011
:1006280086318D268331C630F5000230F6008631DA
:10063800862683318631B02683318B120030FC0048
:100648000030FB000030FA000030F90022008E1262
:100658000E120E108E108C120C1200302000B400F6
:100668000030B5000030B600C501C601C301C401A1
:10067800C101C201BF01C001D101BD01BE01BB0161
:10068800BC01CF01A016080079184B2B4E2B220075
:100698000E14502B22000E10FB1B532B562B22003E
:1006A8008E14582B22008E107A1B5B2B5E2B220097
:1006B8000E16602B22000E12FA1A632B662B2200EC
:1006C8008E16682B22008E127B1B6B2B6E2B220042
:1006D8000C16702B22000C12FA1F732B742B772B1D
:1006E800200023178B167B1C7A2B7B2B802B8B12DD
:1006F8002000A31622008C12200023160800791F60
:10070800862B872BBB2B23008C1021008C142000F8
:100718008C1C8F2B902B962B21160130F500750819
:10072800C9079B2BA115FF30F5007508C9074908B3
:10073800803A753E031CA12BA22BAA2B0A30F50088
:100748007508C900F91321157A14B92BA1144908A1
:10075800803A8A3E0318B12BB22BB92BF630F5003C
:100768007508C900F91721147A10A0177913200009
:1007780020170800F91FC12BC22BD42B20002A17E1
:10078800FB1AC72BC82BE82B7B12FB168531BD251E
:1007980083312000AA160230F5007508CE00E82B38
:1007A80020002A167A1CD92BDA2BE82BAA157B1ADB
:1007B800DE2BDF2BE82B7B16FB128531BD25833121
:1007C80020002A15CE01CE0AAA140800FA19ED2B2A
:1007D800EE2B112C200032157A1AF32BF42B112C46
:1007E800B214FB1DF82BF92B112CFA157A11FA10FB
:1007F800FA127A1732147A30C3000030C400783005
:10080800C5000030C6000130C1000030C200003011
:10081800B4000030B5000030B6002000B117080061
:100828008331082384316400833148238431791863
:100838001E2C1F2C342C2000201683318323843156
:100848008331BE23843182313B2284318131E921D5
:1008580084318031CC20843181318F218431172C2F
:100868002000A015843186248431172C80312D284E
:10087800F80023009518412C422C3D2CF2138B1FB5
:10088800462CF2178B137808F600F7017608230038
:100898009100770892007508930015155530960059
:1008A800AA3096009514F21B5A2C5C2C8B175D2CE1
:1008B8008B1323001511200020150800FA19652C48
:1008C800662C832C200031177A1A6B2C6C2C832C05
:1008D800B116FB1D702C712C832CFA157A11FA10A5
:1008E800FA127A1731161B30C3000030C4001930D1
:1008F800C5000030C6000130C1000030C200200031
:10090800B1150800FA1C892C8A2C902C20002F166F
:100918008531BD258431A42C7B1E932C942C9A2CD4
:100928002000AF158331EA238431A42C20002F1531
:10093800FB1E9F2CA02CA42CAF148531A625843136
:1009480020002F140800FA1DAA2CAB2CB12C200073
:10095800AE178531BD258431C52C7B1EB42CB52C32
:10096800BB2C20002E178431C8248431C52C2000CC
:10097800AE16FB1EC02CC12CC52C2E168531F925B0
:1009880084312000AE1508007A19CB2CCC2CE12C30
:1009980020003115FA18D12CD22CE12CB114FB1DF2
:1009A800D62CD72CE12CFA147A12FA117A13FA16EB
:1009B80031147830C5000030C6002000B017080098
:1009C8007B19E72CE82CFB2C7D080319EC2CED2C6B
:1009D800F12C2000B3150130FD021E302000BF00AD
:1009E8000030C0007C1133158631A02684312000E8
:1009F800B3140800F70023001518032D042DFF2C4D
:100A08002000A014230095180A2D0B2DFF2C770821
:100A1800F500F60175089100760892001514130880
:100A2800200020140800F6007608F500F50DF50DF5
:100A380021001D087506833975069D001D140630B2
:100A4800890B242D003221009D149D182C2D2D2D4D
:100A5800292D1C08721508007B19332D342D462DBD
:100A680020004E080319392D3A2D3D2D331401303D
:100A7800CE028230BF000030C0007C15B21786312C
:100A8800A0268531200032170800200051080319DC
:100A98004E2D4F2D532DA8160130D1025F2D28164B
:100AA8005108031D582D592D5F2DFB14A8151E3014
:100AB800F3007308D1002815080001308431FE24A2
:100AC80085312000D8005808D900590A031D6D2D1A
:100AD8006E2D752D2414F501F50A013084313C245E
:100AE80085312000A317080021001508C0391138E6
:100AF80095008330200095008330F7007708D700F1
:100B08000B118B16B730F5000630F60086318D26AE
:100B18008531F015080022008C018E010F3021006C
:100B28008C000C308E00083023008E0005308C00BD
:100B380024008C018E012100951722009D019E0141
:100B4800F21408007A1AA92DAA2DB02D200030170A
:100B5800FB19AF2DB02DB62D2000B016791CB52D80
:100B6800B62DBB2D30167A117A167A13FA16B015EF
:100B780008007A13FA12FA11FA107A12FB1EC52D20
:100B8800C62DCA2D2000AF177A15CD2D20002F179E
:100B98007A11FB11D001D00AAF16080085318F25D4
:100BA80085318631762685318631A626853185318F
:100BB800E625853186316D26853185317825853163
:100BC80072170800633020009B009A0191102100E1
:100BD8009114C630F5000630F60086318626853138
:100BE8004D3020009C00F11408007A19FC2DFD2DD1
:100BF800082E20003015FB1D022E032E082EB014DF
:100C08007A127A157A13FA122000301408007C1D23
:100C18000E2E0F2E152E2000B2168431E4248631B4
:100C28001A2E200032168531302586312000B21563
:100C380008000B11200057089500530854040319A5
:100C4800262E272E2D2E701554088A0053080A00C8
:100C58008631F01408002000911055085604031935
:100C6800362E372E3D2EF01756088A0055080A00F2
:100C7800863170170800FB1C422E432E472E200099
:100C8800A814FB104D2E200028140330F30073081D
:100C9800FD00A71708007B1A522E532E592E20004C
:100CA8002514FB1E582E592E5C2E2000A4177916E9
:100CB80024170800031022008C1E03140318652E45
:100CC800682E22008C166A2E22008C122000A31592
:100CD8000800503021009E009B019C011D309D00A2
:100CE800F215080078302100990098012200960139
:100CF800F21608007914F910FC14FB142000D20134
:100D08002C17080076082000D6007508D500F016C4
:100D1800080076082000D4007508D3007014080075
:100D2800640080010131890B952E00347B11FA1380
:100D38007B142000331608007B15FA177B1020005F
:100D4800B31608000A3021009700721608007910BF
:100D5800F9142000AC16080020001C1571140800B6
:100D68000034753400342000331708008E34003402
:100D78008034003420344E34A834613420344E3466
:100D88000E340034701608001E3401340134013466
:0E0D9800193478340A340A34043482341E3498
:020000040001F9
:08000000FF3FFF3FFF3FFF3F00
:04000E00DC3FFF1EB6
:00000001FF
