:020000001628C0
:100008007E1480318B1A0B1D0B288E2314280B1F8E
:1000180014282100911C14282000911C1428CB239B
:100028007E1009001728FB01F601F701F801F90114
:10003800FA0120308400003085001F30FE237E1036
:100048002000482B0130F1007108BE07F81B332847
:100058003C08031932280130BC023328F817791CF0
:100068004228771D41280130A007003003180130CD
:10007800A107003003180130A207FC20761C5B287A
:100088001E303E0603194C283C303E06031D4D2801
:10009800DF230310791D03140030093DF100F10D31
:1000A800F10D79087106FB397106F9007328F61C01
:1000B80073280130F1007108B80703303802031CB7
:1000C80073280310791D03140030093DF100F10D68
:1000D800F10D79087106FB397106F900B8013C3059
:1000E8003E06031D08006423BE010800761E0800B2
:1000F80022008E1423008E150630F4003030890B50
:100108008328F40B832800320730C822F400F50155
:1001180074082000C4007508C50023008E11220051
:100128008E10003020004502803003194402031865
:100138009F280130A728003045028F300319440258
:10014800031CAA28FF30F4007408B7073708803A60
:100158007B3E031CB42810240430F4007408B70054
:100168003708803A843E0318BE282E24FC30F40059
:100178007408B70076120800003020002202031D20
:10018800CB2800302102031DCB2879302002031828
:10019800771ADD28F71DF61CDD28F81B791CDD28E9
:1001A8005B220330F2007208FA000330F200720892
:1001B800BA0000302202031DE72800302102031D87
:1001C800E72882302002031C0800771E0800F71D6C
:1001D8000800F61C0800F81F0800791C0800062310
:1001E80000302000A0000030A1000030A20008006C
:1001F800F71C0029F7190800F71C112931083204E7
:10020800031911290130B1020030B23B3108320420
:10021800031D1129F7127715F710F71D08002D088F
:100228002E04031D23293108320403192129F71646
:100238000130B1020030B23B2729F71227290130DB
:10024800AD020030AE3B2F0830040319080001301E
:10025800AF020030B03B2F083004031D08007713AD
:100268007716F7110800F0238B170B175623B430B5
:10027800F2000330F3000A24CB30F2000130F3001F
:1002880004243D248B120030F9000030F8000030BF
:10029800F7000030F60022008E120E120E108E109B
:1002A8008C120C1200302000A0000030A100003099
:1002B800A200B101B201AF01B001AD01AE01AB01C5
:1002C800AC01BD01A901AA01A701A801BB01080051
:1002D800F61E080022008E140630F2003030890B1A
:1002E8007329F20B7329003223000E1121000E1519
:1002F80020000E1D8129FF3082290130F20072088A
:10030800B60722008E1020003608803A753E031C7E
:1003180094290A30F2007208B600F61176159F2962
:100328003608803A8A3E03189F29F630F200720890
:10033800B600F6157611F6120800761CA6292200DA
:100348000E14A82922000E10791EAD2922008E1441
:10035800AF2922008E10771FB42922000E16B62965
:1003680022000E12F71EBB2922008E16BD2922007C
:100378008E12791DC22922000C16C42922000C12E3
:10038800F8188B16781D08008B128C1208000130A3
:10039800A5070030A63D2B082C040319DC290130E1
:1003A800AB020030AC3B2B082C04031DDC292624AF
:1003B800F6167617643025062604031DEB291C243F
:1003C80079220130A3070030A43DA501A6010A3017
:1003D80023062404031D08002620A301A401080005
:1003E800761F080023008C1021008C1420008C1C20
:1003F800FF290130002AFF30F2007208B5073508DE
:10040800803A753E031C0F2A0A30F2007208B500C4
:10041800F61377141A2A3508803A8A3E03181A2ADE
:10042800F630F2007208B500F61777107613080058
:10043800F500230095181D2A7B108B1B7B148B134A
:100448007508F300F4017308230091007408920002
:1004580072089300151555309600AA309600951429
:100468007B1C382A8B17392A8B1323001511080097
:10047800F7190800771A0800F81F0800F715771110
:10048800F710F712771713302000AF000030B000D4
:100498000F30B1000030B2000230AD000030AE00C5
:1004A8000030A0000030A1000030A2000800F719B9
:1004B8000800771A0800F81F0800F7157711F710D9
:1004C800F71277170930AF000030B0000530B100DF
:1004D8000030B2000230AD000030AE000030A000A5
:1004E8000030A1000030A2000800761C882AF81904
:1004F800812A832A3A0803198D2A162408007A08C3
:100508000319080072230800F61C08007A08031D66
:100518007E2A7A080319912A72233A0803190800D7
:1005280080230800F6197619A22AF618F81FA22ABD
:10053800771DF718A22AFA01FA0A9C23761D0800EB
:10054800F81F0800F6190800771A0800F7190800BC
:100558000230F3007308FA00A8230800F61FBE2A29
:10056800F91808007910F91418230230F3007308F9
:10057800BA000800771C0800791808007914F910E7
:100588001823BA01BA0A0800F3007308F200F20D42
:10059800F20D21001D087206833972069D001D1494
:1005A8000630890BD52A003221009D149D18DA2ABD
:1005B8001C08080022008C018E010F3021008C00DD
:1005C8000C308E00083023008E0005308C0024008B
:1005D8008C018E012100951722009D010800150845
:1005E800C039113895008330200095008330F4001D
:1005F8007408C3000B118B164C30F2000430F30062
:100608000A24080077190800F7180800F81F0800DE
:10061800F7147712F7117713F7160F302000B1008F
:100628000030B200F91208007713F712F711F7102B
:100638007712F91C212B7715222B7711F81302302A
:10064800F20072082000BC000800F400230015180E
:100658002A2B95182A2B7408F200F30172089100CE
:1006680073089200151413080800633020009B00DB
:100678009A019110210091144B30F2000430F300DC
:1006880004244D309C0008003721502BF421B2225D
:100698006C2196227A20C0206400A121761C4A2B66
:1006A800A823502B013029232000C4004408C5008A
:1006B800450A031D0800F201F20A01301C22080055
:1006C8003D08031908000130BD023D08031D08005C
:1006D800F8150330F0007008BD000800781A08000B
:1006E8007A080319792B0130FA021E30AB0000306A
:1006F800AC00F9132A240800781A08003A080319EC
:10070800872B0130BA028230AB000030AC00F917F9
:100718002A2408000B112000430895003F084004D4
:100728000319080040088A003F080A0083310800BE
:10073800F71DA02B18230800791CA42B06230800FA
:10074800F91C0800D6230800F71CAC2B1823080056
:10075800791CB02B3C220800F91C0800C0230800B3
:10076800031022008C1E0314031CBD2B22008C16C0
:10077800080022008C120800771AC42BF81BC62B1D
:10078800761C0800771177167713F7160800911072
:10079800410842040319080042088A0041080A0077
:1007A8008331080077190800F81F080077127715B9
:1007B8007713F7120800F81DE32BF811080003302F
:1007C800F0007008FA000800503021009E009B01DC
:1007D8009C011D309D000800DE22F72322243923C6
:1007E800E823F322080078302100990098012200BC
:1007F80096010800640080010131890BFF2B003449
:1008080073082000C2007208C100080073082000A5
:10081800C0007208BF0008007614F6107917F815A2
:10082800BE010800F91F1A2C722308008023080053
:100838007918202CF91C0800761608000A302100C7
:10084800970008007812F810781508007816F81440
:10085800781108007610F61408008E3400348034BD
:1008680000347834003420344E34A83461342034D1
:100878004E341C150800033402340E34013402349B
:1008880005340F340A340A34043482341E34080020
:02089800080056
:020000040001F9
:08000000FF3FFF3FFF3FFF3F00
:04000E00DC3FFF1EB6
:00000001FF
