:020000001628C0
:100008007E1480318B1A0B1D0B28A62314280B1F76
:1000180014282100911C14282000911C1428CC239A
:100028007E1009001728FB01F601F701F801F90114
:10003800FA0120308400003085001F301E247E1015
:1000480020008A2B0130F10071082000BE07F81B40
:1000580034283C08031933280130BC023428F81727
:10006800791C4328771D42280130A0070030031867
:100078000130A107003003180130A2070421761CC3
:100088005D281E3020003E0603194E283C303E06EF
:10009800031D4F28F8230310791D03140030093D70
:1000A800F100F10DF10D79087106FB397106F900BF
:1000B8007628F61C76280130F10071082000B80770
:1000C80003303802031C76280310791D031400300E
:1000D800093DF100F10DF10D79087106FB39710642
:1000E800F900B8013C3020003E06031D08005D23DE
:1000F8002000BE010800761E080022008E1423008E
:100108008E150630F4003030890B8828F40B8828C7
:1001180000320730DB22F400F50174082000C40027
:100128007508C50023008E1122008E1000302000B3
:1001380045028030031944020318A4280130AC2872
:10014800003045028F3003194402031CAF28FF30EA
:10015800F4007408B7073708803A7B3E031CBA28B6
:1001680017240430F40074082000B7003708803AD8
:10017800843E0318C5284B24FC30F4007408200082
:10018800B70076120800003020002202031DD22892
:1001980000302102031DD228793020020318771A73
:1001A800E528F71DF61CE528F81B791CE5286922C7
:1001B8000330F2007208FA000330F20072082000DF
:1001C800BA0000302202031DEF2800302102031D6F
:1001D800EF2882302002031C0800771E0800F71D54
:1001E8000800F61C0800F81F0800791C08001A23EC
:1001F80000302000A0000030A1000030A20008005C
:10020800F71C0829F7190800F71C1A2920003108DB
:10021800320403191A290130B1020030B23B310807
:100228003204031D1A29F7127715F710F71D080075
:1002380020002D082E04031D2D293108320403192E
:100248002B29F7160130B1020030B23B3129F712E1
:1002580031290130AD020030AE3B2F0830040319BC
:1002680008000130AF020030B03B2F083004031DF6
:10027800080077137716F711080009248B170B1756
:100288009823D830F2000330F3002A24AB30F20070
:100298000130F300242448248B120030F900003088
:1002A800F8000030F7000030F60022008E120E121F
:1002B8000E108E108C120C1200302000A00000309E
:1002C800A1000030A200B101B201AF01B001AD013F
:1002D800AE01AB01AC01BD01A901AA01A701A801AA
:1002E800BB010800F61E080022008E140630F2003A
:1002F8003030890B7D29F20B7D29003223000E1145
:1003080021000E1520000E1D8B29FF308C2901308D
:10031800F2007208B60722008E1020003608803AD4
:10032800753E031C9E290A30F2007208B600F611C9
:100338007615A9293608803A8A3E0318A929F63085
:10034800F2007208B600F6157611F61208000130B0
:100358002000A5070030A63D2B082C040319BD2951
:100368000130AB020030AC3B2B082C04031DBD2927
:100378004024F61676176430200025062604031D4F
:10038800CE293624882201302000A3070030A43D5E
:10039800A501A6010A3023062404031D080026200F
:1003A8002000A301A4010800761CDD2922000E14F8
:1003B800DF2922000E10791EE42922008E14E62976
:1003C80022008E10771FEB2922000E16ED2922003D
:1003D8000E12F71EF22922008E16F42922008E1220
:1003E800791DF92922000C16FB2922000C12F81895
:1003F8008B16781D08008B128C120800761F0800D7
:1004080023008C1021008C1420008C1C0D2A013034
:100418000E2AFF30F2007208B5073508803A753E9B
:10042800031C1D2A0A30F2007208B500F61377146F
:10043800282A3508803A8A3E0318282AF630F2001E
:100448007208B500F617771076130800F500230038
:1004580095182B2A7B108B1B7B148B137508F300C4
:10046800F401730823009100740892007208930045
:10047800151555309600AA30960095147B1C462A0F
:100488008B17472A8B13230015110800F71908004A
:10049800771A0800F81F0800F7157711F710F712F8
:1004A800771713302000AF000030B0000F30B100D4
:1004B8000030B2000230AD000030AE000030A000C5
:1004C8000030A1000030A2000800F7190800771AD0
:1004D8000800F81F0800F7157711F710F7127717BB
:1004E80009302000AF000030B0000530B100003006
:1004F800B2000230AD000030AE000030A000003085
:10050800A1000030A2000800761C982AF819912A48
:10051800932A20003A0803199D2A302408007A08F3
:10052800031908006C230800F61C08007A08031D4C
:100538008D2A7A080319A12A6C2320003A08031986
:1005480008007B230800F6197619B32AF618F81F55
:10055800B32A771DF718B32AFA01FA0AB423761DCD
:100568000800F81F0800F6190800771A0800F7199C
:1005780008000230F3007308FA00C0230800F61FD1
:10058800D02AF91808007910F9142C230230F30046
:1005980073082000BA000800771C080079180800C2
:1005A8007914F9102C232000BA01BA0A0800F300C4
:1005B8007308F200F20DF20D21001D08720683394E
:1005C80072069D001D140630890BE82A00322100AE
:1005D8009D149D18ED2A1C08080022008C018E012C
:1005E8000F3021008C000C308E00083023008E0064
:1005F80005308C0024008C018E0121009517220003
:100608009D01080021001508C03911389500833074
:10061800200095008330F4007408C3000B118B167A
:100628006730F2000430F3002A2408007719080024
:10063800F7180800F81F0800F7147712F711771356
:10064800F7160F302000B1000030B200F912080090
:100658007713F712F711F7107712F91C352B771566
:10066800362B7711F8130230F20072082000BC0014
:100678000800F400230015183E2B95183E2B74082B
:10068800F200F30172089100730892001514130820
:100698000800633020009B009A01911021009114FA
:1006A8006630F2000430F30024244D3020009C0012
:1006B800080020003D08031908000130BD023D086C
:1006C800031D0800F8150330F0007008BD0008008D
:1006D800781A08007A080319732B0130FA021E30C1
:1006E8002000AB000030AC00F91344240800781A4D
:1006F800080020003A080319832B0130BA0282301F
:10070800AB000030AC00F917442408004121922BBB
:100718000222C3227621A7227F20C7206400D82185
:10072800761C8C2BC023922B01303D232000C40063
:100738004408C500450A031D0800F201F20A013009
:100748002A2208000B112000430895003F084004A6
:100758000319080040088A003F080A00833108008E
:10076800F71DB82B2C230800791CBC2B1A23080072
:10077800F91C0800EF230800F71CC42B2C230800E1
:10078800791CC82B4A220800F91C0800E423080039
:1007980020009110410842040319080042088A0009
:1007A80041080A0083310800031022008C1E03143C
:1007B800031CE12B22008C16080022008C12080072
:1007C800771AE82BF81BEA2B761C080077117716A6
:1007D8007713F716080077190800F81F0800771232
:1007E80077157713F7120800F81DFC2BF81108008D
:1007F8000330F0007008FA000800503021009E0015
:100808009B019C011D309D000800F12210243C240E
:100818004D2301240623080078302100990098010F
:100828002200960108007614F6107917F8152000B2
:10083800BE010800640080010131890B1F2C0034BF
:1008480073082000C2007208C10008007308200065
:10085800C0007208BF000800F91F342C6C23080080
:100868007B23080079183A2CF91C08007616080032
:100878000A302100970008007812F810781508004F
:100888007816F8147811080020001C150800761056
:10089800F61408008E340034803400347834003480
:1008A80020344E34A834613420344E3403340234B6
:1008B8000E340134023405340F340A340A34043453
:0808C80082341E340800080010
:020000040001F9
:08000000FF3FFF3FFF3FFF3F00
:04000E00DC3FFF1EB6
:00000001FF
